:020000040000FA
:020000001028C6
:020008002A28A4
:1000200018200130A3000230A400A30B3D282E2885
:100030008312031307309F0090308B00811301134C
:100040008501860183160313850101308600831222
:1000500003130800860163008B10090086144820F2
:100060008615482086164820861748200615482001
:100070000616482006174820152886014820FF301C
:1000800086004820A40B3D280130A30086011128DA
:100090005430A0008A30A1000330A200A00B4E28EB
:0C00A000A10B4E28A20B4E280000080007
:02400E00613F10
:00000001FF
